{
  "contractName": "Check",
  "abi": [
    {
      "inputs": [
        {
          "internalType": "uint256",
          "name": "",
          "type": "uint256"
        }
      ],
      "name": "accounts",
      "outputs": [
        {
          "internalType": "address",
          "name": "",
          "type": "address"
        }
      ],
      "stateMutability": "view",
      "type": "function"
    },
    {
      "inputs": [
        {
          "internalType": "uint256",
          "name": "",
          "type": "uint256"
        }
      ],
      "name": "balance",
      "outputs": [
        {
          "internalType": "uint256",
          "name": "",
          "type": "uint256"
        }
      ],
      "stateMutability": "view",
      "type": "function"
    },
    {
      "inputs": [
        {
          "internalType": "uint256",
          "name": "acc",
          "type": "uint256"
        },
        {
          "internalType": "uint256",
          "name": "amount",
          "type": "uint256"
        }
      ],
      "name": "depositTO",
      "outputs": [],
      "stateMutability": "nonpayable",
      "type": "function"
    },
    {
      "inputs": [
        {
          "internalType": "uint256",
          "name": "acc",
          "type": "uint256"
        },
        {
          "internalType": "uint256",
          "name": "amount",
          "type": "uint256"
        }
      ],
      "name": "withdraw",
      "outputs": [
        {
          "internalType": "bool",
          "name": "",
          "type": "bool"
        }
      ],
      "stateMutability": "nonpayable",
      "type": "function"
    },
    {
      "inputs": [
        {
          "internalType": "uint256",
          "name": "acc",
          "type": "uint256"
        }
      ],
      "name": "getBalance",
      "outputs": [
        {
          "internalType": "uint256",
          "name": "",
          "type": "uint256"
        }
      ],
      "stateMutability": "view",
      "type": "function"
    }
  ],
  "bytecode": "0x608060405234801561001057600080fd5b5061052b806100206000396000f3fe608060405234801561001057600080fd5b50600436106100575760003560e01c80631e0104391461005c578063441a3e701461008c57806347bb89f0146100bc578063c1dd74b7146100ec578063f2a40db814610108575b600080fd5b61007660048036038101906100719190610306565b610138565b6040516100839190610342565b60405180910390f35b6100a660048036038101906100a1919061035d565b610155565b6040516100b391906103b8565b60405180910390f35b6100d660048036038101906100d19190610306565b610235565b6040516100e39190610342565b60405180910390f35b6101066004803603810190610101919061035d565b61024d565b005b610122600480360381019061011d9190610306565b610295565b60405161012f9190610414565b60405180910390f35b600060036000838152602001908152602001600020549050919050565b60008083101580156101675750600383105b61017057600080fd5b3373ffffffffffffffffffffffffffffffffffffffff166000846003811061019b5761019a61042f565b5b0160009054906101000a900473ffffffffffffffffffffffffffffffffffffffff1673ffffffffffffffffffffffffffffffffffffffff16146101dd57600080fd5b8160036000858152602001908152602001600020541061022a578160036000858152602001908152602001600020600082825461021a919061048d565b925050819055506001905061022f565b600090505b92915050565b60036020528060005260406000206000915090505481565b6000821015801561025e5750600382105b61026757600080fd5b8060036000848152602001908152602001600020600082825461028a91906104c1565b925050819055505050565b600081600381106102a557600080fd5b016000915054906101000a900473ffffffffffffffffffffffffffffffffffffffff1681565b600080fd5b6000819050919050565b6102e3816102d0565b81146102ee57600080fd5b50565b600081359050610300816102da565b92915050565b60006020828403121561031c5761031b6102cb565b5b600061032a848285016102f1565b91505092915050565b61033c816102d0565b82525050565b60006020820190506103576000830184610333565b92915050565b60008060408385031215610374576103736102cb565b5b6000610382858286016102f1565b9250506020610393858286016102f1565b9150509250929050565b60008115159050919050565b6103b28161039d565b82525050565b60006020820190506103cd60008301846103a9565b92915050565b600073ffffffffffffffffffffffffffffffffffffffff82169050919050565b60006103fe826103d3565b9050919050565b61040e816103f3565b82525050565b60006020820190506104296000830184610405565b92915050565b7f4e487b7100000000000000000000000000000000000000000000000000000000600052603260045260246000fd5b7f4e487b7100000000000000000000000000000000000000000000000000000000600052601160045260246000fd5b6000610498826102d0565b91506104a3836102d0565b92508282039050818111156104bb576104ba61045e565b5b92915050565b60006104cc826102d0565b91506104d7836102d0565b92508282019050808211156104ef576104ee61045e565b5b9291505056fea2646970667358221220dd1461b2a2a20122c94ac4d1fed4f3ef503c53249621507a90de31c3c1c8e50964736f6c63430008110033",
  "immutableReferences": {},
  "source": "pragma solidity 0.8.17;\ncontract Check {\n\naddress[3] public accounts;\nmapping(uint => uint) public balance;\n\n\nfunction depositTO (uint acc, uint amount) public {\n    require(acc >= 0 && acc < 3);\n    balance[acc] += amount;\n}\n\nfunction withdraw(uint acc, uint amount) public returns (bool) {\n    require(acc >= 0 && acc < 3);\n    require(accounts[acc] == msg.sender);\n\n    if (balance[acc] >= amount){\n        balance[acc] -= amount;\n        return true;\n    } else {\n        return false;\n    }\n\n}\n\nfunction getBalance(uint acc) public view returns(uint) {\n      return balance[acc];\n  }\n\n\n\n\n}\n",
  "sourcePath": "C:\\Users\\Prad'\\Desktop\\blockchain2assignment\\contracts\\Check.sol",
  "compiler": {
    "name": "solc",
    "version": "0.8.17+commit.8df45f5f.Emscripten.clang"
  },
  "schemaVersion": "3.4.10",
  "updatedAt": "2022-11-04T16:35:49.255Z",
  "devdoc": {
    "kind": "dev",
    "methods": {},
    "version": 1
  },
  "userdoc": {
    "kind": "user",
    "methods": {},
    "version": 1
  }
}